{
  "_format": "hh-sol-artifact-1",
  "contractName": "MyEpicNFT",
  "sourceName": "contracts/MyEpicNFT.sol",
  "abi": [
    {
      "inputs": [],
      "stateMutability": "nonpayable",
      "type": "constructor"
    },
    {
      "anonymous": false,
      "inputs": [
        {
          "indexed": true,
          "internalType": "address",
          "name": "owner",
          "type": "address"
        },
        {
          "indexed": true,
          "internalType": "address",
          "name": "approved",
          "type": "address"
        },
        {
          "indexed": true,
          "internalType": "uint256",
          "name": "tokenId",
          "type": "uint256"
        }
      ],
      "name": "Approval",
      "type": "event"
    },
    {
      "anonymous": false,
      "inputs": [
        {
          "indexed": true,
          "internalType": "address",
          "name": "owner",
          "type": "address"
        },
        {
          "indexed": true,
          "internalType": "address",
          "name": "operator",
          "type": "address"
        },
        {
          "indexed": false,
          "internalType": "bool",
          "name": "approved",
          "type": "bool"
        }
      ],
      "name": "ApprovalForAll",
      "type": "event"
    },
    {
      "anonymous": false,
      "inputs": [
        {
          "indexed": false,
          "internalType": "address",
          "name": "sender",
          "type": "address"
        },
        {
          "indexed": false,
          "internalType": "uint256",
          "name": "tokenId",
          "type": "uint256"
        },
        {
          "indexed": false,
          "internalType": "string",
          "name": "playerName",
          "type": "string"
        },
        {
          "indexed": false,
          "internalType": "string",
          "name": "playerNumber",
          "type": "string"
        }
      ],
      "name": "NewEpicNFTMinted",
      "type": "event"
    },
    {
      "anonymous": false,
      "inputs": [
        {
          "indexed": true,
          "internalType": "address",
          "name": "from",
          "type": "address"
        },
        {
          "indexed": true,
          "internalType": "address",
          "name": "to",
          "type": "address"
        },
        {
          "indexed": true,
          "internalType": "uint256",
          "name": "tokenId",
          "type": "uint256"
        }
      ],
      "name": "Transfer",
      "type": "event"
    },
    {
      "inputs": [
        {
          "internalType": "address",
          "name": "to",
          "type": "address"
        },
        {
          "internalType": "uint256",
          "name": "tokenId",
          "type": "uint256"
        }
      ],
      "name": "approve",
      "outputs": [],
      "stateMutability": "nonpayable",
      "type": "function"
    },
    {
      "inputs": [
        {
          "internalType": "address",
          "name": "owner",
          "type": "address"
        }
      ],
      "name": "balanceOf",
      "outputs": [
        {
          "internalType": "uint256",
          "name": "",
          "type": "uint256"
        }
      ],
      "stateMutability": "view",
      "type": "function"
    },
    {
      "inputs": [
        {
          "internalType": "uint256",
          "name": "tokenId",
          "type": "uint256"
        }
      ],
      "name": "getApproved",
      "outputs": [
        {
          "internalType": "address",
          "name": "",
          "type": "address"
        }
      ],
      "stateMutability": "view",
      "type": "function"
    },
    {
      "inputs": [],
      "name": "getTotalNFTsMinted",
      "outputs": [
        {
          "internalType": "uint256",
          "name": "",
          "type": "uint256"
        }
      ],
      "stateMutability": "view",
      "type": "function"
    },
    {
      "inputs": [
        {
          "internalType": "address",
          "name": "owner",
          "type": "address"
        },
        {
          "internalType": "address",
          "name": "operator",
          "type": "address"
        }
      ],
      "name": "isApprovedForAll",
      "outputs": [
        {
          "internalType": "bool",
          "name": "",
          "type": "bool"
        }
      ],
      "stateMutability": "view",
      "type": "function"
    },
    {
      "inputs": [],
      "name": "makeAnEpicNFT",
      "outputs": [],
      "stateMutability": "nonpayable",
      "type": "function"
    },
    {
      "inputs": [],
      "name": "name",
      "outputs": [
        {
          "internalType": "string",
          "name": "",
          "type": "string"
        }
      ],
      "stateMutability": "view",
      "type": "function"
    },
    {
      "inputs": [
        {
          "internalType": "uint256",
          "name": "tokenId",
          "type": "uint256"
        }
      ],
      "name": "ownerOf",
      "outputs": [
        {
          "internalType": "address",
          "name": "",
          "type": "address"
        }
      ],
      "stateMutability": "view",
      "type": "function"
    },
    {
      "inputs": [
        {
          "internalType": "uint256",
          "name": "tokenId",
          "type": "uint256"
        }
      ],
      "name": "pickRandomIndex",
      "outputs": [
        {
          "internalType": "uint256",
          "name": "",
          "type": "uint256"
        }
      ],
      "stateMutability": "view",
      "type": "function"
    },
    {
      "inputs": [
        {
          "internalType": "address",
          "name": "from",
          "type": "address"
        },
        {
          "internalType": "address",
          "name": "to",
          "type": "address"
        },
        {
          "internalType": "uint256",
          "name": "tokenId",
          "type": "uint256"
        }
      ],
      "name": "safeTransferFrom",
      "outputs": [],
      "stateMutability": "nonpayable",
      "type": "function"
    },
    {
      "inputs": [
        {
          "internalType": "address",
          "name": "from",
          "type": "address"
        },
        {
          "internalType": "address",
          "name": "to",
          "type": "address"
        },
        {
          "internalType": "uint256",
          "name": "tokenId",
          "type": "uint256"
        },
        {
          "internalType": "bytes",
          "name": "_data",
          "type": "bytes"
        }
      ],
      "name": "safeTransferFrom",
      "outputs": [],
      "stateMutability": "nonpayable",
      "type": "function"
    },
    {
      "inputs": [
        {
          "internalType": "address",
          "name": "operator",
          "type": "address"
        },
        {
          "internalType": "bool",
          "name": "approved",
          "type": "bool"
        }
      ],
      "name": "setApprovalForAll",
      "outputs": [],
      "stateMutability": "nonpayable",
      "type": "function"
    },
    {
      "inputs": [
        {
          "internalType": "bytes4",
          "name": "interfaceId",
          "type": "bytes4"
        }
      ],
      "name": "supportsInterface",
      "outputs": [
        {
          "internalType": "bool",
          "name": "",
          "type": "bool"
        }
      ],
      "stateMutability": "view",
      "type": "function"
    },
    {
      "inputs": [],
      "name": "symbol",
      "outputs": [
        {
          "internalType": "string",
          "name": "",
          "type": "string"
        }
      ],
      "stateMutability": "view",
      "type": "function"
    },
    {
      "inputs": [
        {
          "internalType": "uint256",
          "name": "tokenId",
          "type": "uint256"
        }
      ],
      "name": "tokenURI",
      "outputs": [
        {
          "internalType": "string",
          "name": "",
          "type": "string"
        }
      ],
      "stateMutability": "view",
      "type": "function"
    },
    {
      "inputs": [
        {
          "internalType": "address",
          "name": "from",
          "type": "address"
        },
        {
          "internalType": "address",
          "name": "to",
          "type": "address"
        },
        {
          "internalType": "uint256",
          "name": "tokenId",
          "type": "uint256"
        }
      ],
      "name": "transferFrom",
      "outputs": [],
      "stateMutability": "nonpayable",
      "type": "function"
    }
  ],
  "bytecode": "0x60806040526040518061170001604052806116dc815260200162004d636116dc9139600890805190602001906200003892919062000e85565b506040518060a001604052806072815260200162004b5660729139600990805190602001906200006a92919062000e85565b50604051806101a00160405280610167815260200162004bc86101679139600a90805190602001906200009f92919062000e85565b506040518061034001604052806040518060400160405280600b81526020017f432e416e63656c6f74746900000000000000000000000000000000000000000081525081526020016040518060400160405280600881526020017f436f7572746f697300000000000000000000000000000000000000000000000081525081526020016040518060400160405280600881526020017f43617276616a616c00000000000000000000000000000000000000000000000081525081526020016040518060400160405280600a81526020017f452e204d696c6974616f0000000000000000000000000000000000000000000081525081526020016040518060400160405280600581526020017f416c61626100000000000000000000000000000000000000000000000000000081525081526020016040518060400160405280600781526020017f56616c6c656a6f0000000000000000000000000000000000000000000000000081525081526020016040518060400160405280600581526020017f4e6163686f00000000000000000000000000000000000000000000000000000081525081526020016040518060400160405280600681526020017f48617a617264000000000000000000000000000000000000000000000000000081525081526020016040518060400160405280600581526020017f4b726f6f7300000000000000000000000000000000000000000000000000000081525081526020016040518060400160405280600781526020017f42656e7a656d610000000000000000000000000000000000000000000000000081525081526020016040518060400160405280600681526020017f4d6f64726963000000000000000000000000000000000000000000000000000081525081526020016040518060400160405280600781526020017f4173656e73696f0000000000000000000000000000000000000000000000000081525081526020016040518060400160405280600781526020017f4d617263656c6f0000000000000000000000000000000000000000000000000081525081526020016040518060400160405280600581526020017f4c756e696e00000000000000000000000000000000000000000000000000000081525081526020016040518060400160405280600881526020017f436173656d69726f00000000000000000000000000000000000000000000000081525081526020016040518060400160405280600881526020017f56616c766572646500000000000000000000000000000000000000000000000081525081526020016040518060400160405280600581526020017f4a6f76696300000000000000000000000000000000000000000000000000000081525081526020016040518060400160405280600881526020017f4c7563617320562e00000000000000000000000000000000000000000000000081525081526020016040518060400160405280600481526020017f42616c650000000000000000000000000000000000000000000000000000000081525081526020016040518060400160405280600a81526020017f442e436562616c6c6f730000000000000000000000000000000000000000000081525081526020016040518060400160405280600881526020017f56696e69204a722e00000000000000000000000000000000000000000000000081525081526020016040518060400160405280600781526020017f526f647279676f0000000000000000000000000000000000000000000000000081525081526020016040518060400160405280600481526020017f4973636f0000000000000000000000000000000000000000000000000000000081525081526020016040518060400160405280600881526020017f462e204d656e647900000000000000000000000000000000000000000000000081525081526020016040518060400160405280600781526020017f4d617269616e6f0000000000000000000000000000000000000000000000000081525081526020016040518060400160405280600981526020017f43616d6176696e67610000000000000000000000000000000000000000000000815250815250600b90601a620006ba92919062000f16565b506040518061034001604052806040518060400160405280600181526020017f300000000000000000000000000000000000000000000000000000000000000081525081526020016040518060400160405280600181526020017f310000000000000000000000000000000000000000000000000000000000000081525081526020016040518060400160405280600181526020017f320000000000000000000000000000000000000000000000000000000000000081525081526020016040518060400160405280600181526020017f330000000000000000000000000000000000000000000000000000000000000081525081526020016040518060400160405280600181526020017f340000000000000000000000000000000000000000000000000000000000000081525081526020016040518060400160405280600181526020017f350000000000000000000000000000000000000000000000000000000000000081525081526020016040518060400160405280600181526020017f360000000000000000000000000000000000000000000000000000000000000081525081526020016040518060400160405280600181526020017f370000000000000000000000000000000000000000000000000000000000000081525081526020016040518060400160405280600181526020017f380000000000000000000000000000000000000000000000000000000000000081525081526020016040518060400160405280600181526020017f390000000000000000000000000000000000000000000000000000000000000081525081526020016040518060400160405280600281526020017f313000000000000000000000000000000000000000000000000000000000000081525081526020016040518060400160405280600281526020017f313100000000000000000000000000000000000000000000000000000000000081525081526020016040518060400160405280600281526020017f313200000000000000000000000000000000000000000000000000000000000081525081526020016040518060400160405280600281526020017f313300000000000000000000000000000000000000000000000000000000000081525081526020016040518060400160405280600281526020017f313400000000000000000000000000000000000000000000000000000000000081525081526020016040518060400160405280600281526020017f313500000000000000000000000000000000000000000000000000000000000081525081526020016040518060400160405280600281526020017f313600000000000000000000000000000000000000000000000000000000000081525081526020016040518060400160405280600281526020017f313700000000000000000000000000000000000000000000000000000000000081525081526020016040518060400160405280600281526020017f313800000000000000000000000000000000000000000000000000000000000081525081526020016040518060400160405280600281526020017f313900000000000000000000000000000000000000000000000000000000000081525081526020016040518060400160405280600281526020017f323000000000000000000000000000000000000000000000000000000000000081525081526020016040518060400160405280600281526020017f323100000000000000000000000000000000000000000000000000000000000081525081526020016040518060400160405280600281526020017f323200000000000000000000000000000000000000000000000000000000000081525081526020016040518060400160405280600281526020017f323300000000000000000000000000000000000000000000000000000000000081525081526020016040518060400160405280600281526020017f323400000000000000000000000000000000000000000000000000000000000081525081526020016040518060400160405280600281526020017f3235000000000000000000000000000000000000000000000000000000000000815250815250600c90601a62000cd592919062000f16565b5034801562000ce357600080fd5b506040518060400160405280601481526020017f5265616c4d61647269644e4654207332312d32320000000000000000000000008152506040518060400160405280600a81526020017f524d43467332312d323200000000000000000000000000000000000000000000815250816000908051906020019062000d6892919062000e85565b50806001908051906020019062000d8192919062000e85565b50505062000db360405180606001604052806034815260200162004d2f6034913962000db960201b6200107a1760201c565b62001137565b62000e598160405160240162000dd091906200104b565b6040516020818303038152906040527f41304fac000000000000000000000000000000000000000000000000000000007bffffffffffffffffffffffffffffffffffffffffffffffffffffffff19166020820180517bffffffffffffffffffffffffffffffffffffffffffffffffffffffff838183161783525050505062000e5c60201b60201c565b50565b60008151905060006a636f6e736f6c652e6c6f679050602083016000808483855afa5050505050565b82805462000e9390620010c1565b90600052602060002090601f01602090048101928262000eb7576000855562000f03565b82601f1062000ed257805160ff191683800117855562000f03565b8280016001018555821562000f03579182015b8281111562000f0257825182559160200191906001019062000ee5565b5b50905062000f12919062000f7d565b5090565b82805482825590600052602060002090810192821562000f6a579160200282015b8281111562000f6957825182908051906020019062000f5892919062000e85565b509160200191906001019062000f37565b5b50905062000f79919062000f9c565b5090565b5b8082111562000f9857600081600090555060010162000f7e565b5090565b5b8082111562000fc0576000818162000fb6919062000fc4565b5060010162000f9d565b5090565b50805462000fd290620010c1565b6000825580601f1062000fe6575062001007565b601f01602090049060005260206000209081019062001006919062000f7d565b5b50565b600062001017826200106f565b6200102381856200107a565b9350620010358185602086016200108b565b620010408162001126565b840191505092915050565b600060208201905081810360008301526200106781846200100a565b905092915050565b600081519050919050565b600082825260208201905092915050565b60005b83811015620010ab5780820151818401526020810190506200108e565b83811115620010bb576000848401525b50505050565b60006002820490506001821680620010da57607f821691505b60208210811415620010f157620010f0620010f7565b5b50919050565b7f4e487b7100000000000000000000000000000000000000000000000000000000600052602260045260246000fd5b6000601f19601f8301169050919050565b613a0f80620011476000396000f3fe608060405234801561001057600080fd5b50600436106101005760003560e01c806395d89b4111610097578063c2dff04a11610066578063c2dff04a146102ab578063c87b56dd146102db578063de9d132f1461030b578063e985e9c51461031557610100565b806395d89b4114610237578063a22cb46514610255578063b4c3b8be14610271578063b88d4fde1461028f57610100565b806323b872dd116100d357806323b872dd1461019f57806342842e0e146101bb5780636352211e146101d757806370a082311461020757610100565b806301ffc9a71461010557806306fdde0314610135578063081812fc14610153578063095ea7b314610183575b600080fd5b61011f600480360381019061011a91906123a9565b610345565b60405161012c9190612b62565b60405180910390f35b61013d610427565b60405161014a9190612b7d565b60405180910390f35b61016d600480360381019061016891906123fb565b6104b9565b60405161017a9190612aa8565b60405180910390f35b61019d6004803603810190610198919061236d565b61053e565b005b6101b960048036038101906101b49190612267565b610656565b005b6101d560048036038101906101d09190612267565b6106b6565b005b6101f160048036038101906101ec91906123fb565b6106d6565b6040516101fe9190612aa8565b60405180910390f35b610221600480360381019061021c9190612202565b610788565b60405161022e9190612e2d565b60405180910390f35b61023f610840565b60405161024c9190612b7d565b60405180910390f35b61026f600480360381019061026a9190612331565b6108d2565b005b610279610a53565b6040516102869190612e2d565b60405180910390f35b6102a960048036038101906102a491906122b6565b610aac565b005b6102c560048036038101906102c091906123fb565b610b0e565b6040516102d29190612e2d565b60405180910390f35b6102f560048036038101906102f091906123fb565b610b75565b6040516103029190612b7d565b60405180910390f35b610313610cc7565b005b61032f600480360381019061032a919061222b565b610fe6565b60405161033c9190612b62565b60405180910390f35b60007f80ac58cd000000000000000000000000000000000000000000000000000000007bffffffffffffffffffffffffffffffffffffffffffffffffffffffff1916827bffffffffffffffffffffffffffffffffffffffffffffffffffffffff1916148061041057507f5b5e139f000000000000000000000000000000000000000000000000000000007bffffffffffffffffffffffffffffffffffffffffffffffffffffffff1916827bffffffffffffffffffffffffffffffffffffffffffffffffffffffff1916145b80610420575061041f82611113565b5b9050919050565b606060008054610436906130c1565b80601f0160208091040260200160405190810160405280929190818152602001828054610462906130c1565b80156104af5780601f10610484576101008083540402835291602001916104af565b820191906000526020600020905b81548152906001019060200180831161049257829003601f168201915b5050505050905090565b60006104c48261117d565b610503576040517f08c379a00000000000000000000000000000000000000000000000000000000081526004016104fa90612d6d565b60405180910390fd5b6004600083815260200190815260200160002060009054906101000a900473ffffffffffffffffffffffffffffffffffffffff169050919050565b6000610549826106d6565b90508073ffffffffffffffffffffffffffffffffffffffff168373ffffffffffffffffffffffffffffffffffffffff1614156105ba576040517f08c379a00000000000000000000000000000000000000000000000000000000081526004016105b190612dcd565b60405180910390fd5b8073ffffffffffffffffffffffffffffffffffffffff166105d96111e9565b73ffffffffffffffffffffffffffffffffffffffff1614806106085750610607816106026111e9565b610fe6565b5b610647576040517f08c379a000000000000000000000000000000000000000000000000000000000815260040161063e90612cad565b60405180910390fd5b61065183836111f1565b505050565b6106676106616111e9565b826112aa565b6106a6576040517f08c379a000000000000000000000000000000000000000000000000000000000815260040161069d90612ded565b60405180910390fd5b6106b1838383611388565b505050565b6106d183838360405180602001604052806000815250610aac565b505050565b6000806002600084815260200190815260200160002060009054906101000a900473ffffffffffffffffffffffffffffffffffffffff169050600073ffffffffffffffffffffffffffffffffffffffff168173ffffffffffffffffffffffffffffffffffffffff16141561077f576040517f08c379a000000000000000000000000000000000000000000000000000000000815260040161077690612ced565b60405180910390fd5b80915050919050565b60008073ffffffffffffffffffffffffffffffffffffffff168273ffffffffffffffffffffffffffffffffffffffff1614156107f9576040517f08c379a00000000000000000000000000000000000000000000000000000000081526004016107f090612ccd565b60405180910390fd5b600360008373ffffffffffffffffffffffffffffffffffffffff1673ffffffffffffffffffffffffffffffffffffffff168152602001908152602001600020549050919050565b60606001805461084f906130c1565b80601f016020809104026020016040519081016040528092919081815260200182805461087b906130c1565b80156108c85780601f1061089d576101008083540402835291602001916108c8565b820191906000526020600020905b8154815290600101906020018083116108ab57829003601f168201915b5050505050905090565b6108da6111e9565b73ffffffffffffffffffffffffffffffffffffffff168273ffffffffffffffffffffffffffffffffffffffff161415610948576040517f08c379a000000000000000000000000000000000000000000000000000000000815260040161093f90612c6d565b60405180910390fd5b80600560006109556111e9565b73ffffffffffffffffffffffffffffffffffffffff1673ffffffffffffffffffffffffffffffffffffffff16815260200190815260200160002060008473ffffffffffffffffffffffffffffffffffffffff1673ffffffffffffffffffffffffffffffffffffffff16815260200190815260200160002060006101000a81548160ff0219169083151502179055508173ffffffffffffffffffffffffffffffffffffffff16610a026111e9565b73ffffffffffffffffffffffffffffffffffffffff167f17307eab39ab6107e8899845ad3d59bd9653f200f220920489ca2b5937696c3183604051610a479190612b62565b60405180910390a35050565b6000610a9d6040518060400160405280601681526020017f546f74616c204e46542773206d696e7465643a20256400000000000000000000815250610a9860076115e4565b6115f2565b610aa760076115e4565b905090565b610abd610ab76111e9565b836112aa565b610afc576040517f08c379a0000000000000000000000000000000000000000000000000000000008152600401610af390612ded565b60405180910390fd5b610b088484848461168e565b50505050565b600080610b57610b33424486610b249190612ef6565b610b2e9190612ef6565b6116ea565b604051602001610b439190612a86565b604051602081830303815290604052611897565b9050600b8054905081610b6a919061316d565b905080915050919050565b6060610b808261117d565b610bbf576040517f08c379a0000000000000000000000000000000000000000000000000000000008152600401610bb690612d4d565b60405180910390fd5b6000600660008481526020019081526020016000208054610bdf906130c1565b80601f0160208091040260200160405190810160405280929190818152602001828054610c0b906130c1565b8015610c585780601f10610c2d57610100808354040283529160200191610c58565b820191906000526020600020905b815481529060010190602001808311610c3b57829003601f168201915b505050505090506000610c696118ca565b9050600081511415610c7f578192505050610cc2565b600082511115610cb4578082604051602001610c9c929190612975565b60405160208183030381529060405292505050610cc2565b610cbd846118e1565b925050505b919050565b6063610cd360076115e4565b10610d13576040517f08c379a0000000000000000000000000000000000000000000000000000000008152600401610d0a90612e0d565b60405180910390fd5b60006001610d2160076115e4565b610d2b9190612ef6565b90506000610d3882610b0e565b905060006008600b8381548110610d78577f4e487b7100000000000000000000000000000000000000000000000000000000600052603260045260246000fd5b906000526020600020016009600c8581548110610dbe577f4e487b7100000000000000000000000000000000000000000000000000000000600052603260045260246000fd5b90600052602060002001600a604051602001610dde959493929190612999565b60405160208183030381529060405290506000610eb5610dfd856116ea565b600b8581548110610e37577f4e487b7100000000000000000000000000000000000000000000000000000000600052603260045260246000fd5b90600052602060002001600c8681548110610e7b577f4e487b7100000000000000000000000000000000000000000000000000000000600052603260045260246000fd5b90600052602060002001610e8e86611988565b604051602001610ea194939291906129e4565b604051602081830303815290604052611988565b9050600081604051602001610eca9190612a64565b6040516020818303038152906040529050610ee53386611b46565b610eef8582611b64565b610ef96007611bd8565b610f1c604051806060016040528060258152602001613975602591398633611bee565b7fb348edf008176ccec1ce2205adec6738da8ab2f9bfe48797849f97e16ea5766c3386600b8781548110610f79577f4e487b7100000000000000000000000000000000000000000000000000000000600052603260045260246000fd5b90600052602060002001600c8881548110610fbd577f4e487b7100000000000000000000000000000000000000000000000000000000600052603260045260246000fd5b90600052602060002001604051610fd79493929190612b0f565b60405180910390a15050505050565b6000600560008473ffffffffffffffffffffffffffffffffffffffff1673ffffffffffffffffffffffffffffffffffffffff16815260200190815260200160002060008373ffffffffffffffffffffffffffffffffffffffff1673ffffffffffffffffffffffffffffffffffffffff16815260200190815260200160002060009054906101000a900460ff16905092915050565b6111108160405160240161108e9190612b7d565b6040516020818303038152906040527f41304fac000000000000000000000000000000000000000000000000000000007bffffffffffffffffffffffffffffffffffffffffffffffffffffffff19166020820180517bffffffffffffffffffffffffffffffffffffffffffffffffffffffff8381831617835250505050611c8d565b50565b60007f01ffc9a7000000000000000000000000000000000000000000000000000000007bffffffffffffffffffffffffffffffffffffffffffffffffffffffff1916827bffffffffffffffffffffffffffffffffffffffffffffffffffffffff1916149050919050565b60008073ffffffffffffffffffffffffffffffffffffffff166002600084815260200190815260200160002060009054906101000a900473ffffffffffffffffffffffffffffffffffffffff1673ffffffffffffffffffffffffffffffffffffffff1614159050919050565b600033905090565b816004600083815260200190815260200160002060006101000a81548173ffffffffffffffffffffffffffffffffffffffff021916908373ffffffffffffffffffffffffffffffffffffffff160217905550808273ffffffffffffffffffffffffffffffffffffffff16611264836106d6565b73ffffffffffffffffffffffffffffffffffffffff167f8c5be1e5ebec7d5bd14f71427d1e84f3dd0314c0f7b2291e5b200ac8c7c3b92560405160405180910390a45050565b60006112b58261117d565b6112f4576040517f08c379a00000000000000000000000000000000000000000000000000000000081526004016112eb90612c8d565b60405180910390fd5b60006112ff836106d6565b90508073ffffffffffffffffffffffffffffffffffffffff168473ffffffffffffffffffffffffffffffffffffffff16148061136e57508373ffffffffffffffffffffffffffffffffffffffff16611356846104b9565b73ffffffffffffffffffffffffffffffffffffffff16145b8061137f575061137e8185610fe6565b5b91505092915050565b8273ffffffffffffffffffffffffffffffffffffffff166113a8826106d6565b73ffffffffffffffffffffffffffffffffffffffff16146113fe576040517f08c379a00000000000000000000000000000000000000000000000000000000081526004016113f590612d8d565b60405180910390fd5b600073ffffffffffffffffffffffffffffffffffffffff168273ffffffffffffffffffffffffffffffffffffffff16141561146e576040517f08c379a000000000000000000000000000000000000000000000000000000000815260040161146590612c4d565b60405180910390fd5b611479838383611cb6565b6114846000826111f1565b6001600360008573ffffffffffffffffffffffffffffffffffffffff1673ffffffffffffffffffffffffffffffffffffffff16815260200190815260200160002060008282546114d49190612fd7565b925050819055506001600360008473ffffffffffffffffffffffffffffffffffffffff1673ffffffffffffffffffffffffffffffffffffffff168152602001908152602001600020600082825461152b9190612ef6565b92505081905550816002600083815260200190815260200160002060006101000a81548173ffffffffffffffffffffffffffffffffffffffff021916908373ffffffffffffffffffffffffffffffffffffffff160217905550808273ffffffffffffffffffffffffffffffffffffffff168473ffffffffffffffffffffffffffffffffffffffff167fddf252ad1be2c89b69c2b068fc378daa952ba7f163c4a11628f55a4df523b3ef60405160405180910390a4505050565b600081600001549050919050565b61168a8282604051602401611608929190612b9f565b6040516020818303038152906040527f9710a9d0000000000000000000000000000000000000000000000000000000007bffffffffffffffffffffffffffffffffffffffffffffffffffffffff19166020820180517bffffffffffffffffffffffffffffffffffffffffffffffffffffffff8381831617835250505050611c8d565b5050565b611699848484611388565b6116a584848484611cbb565b6116e4576040517f08c379a00000000000000000000000000000000000000000000000000000000081526004016116db90612c0d565b60405180910390fd5b50505050565b60606000821415611732576040518060400160405280600181526020017f30000000000000000000000000000000000000000000000000000000000000008152509050611892565b600082905060005b6000821461176457808061174d90613124565b915050600a8261175d9190612f4c565b915061173a565b60008167ffffffffffffffff8111156117a6577f4e487b7100000000000000000000000000000000000000000000000000000000600052604160045260246000fd5b6040519080825280601f01601f1916602001820160405280156117d85781602001600182028036833780820191505090505b5090505b6000851461188b576001826117f19190612fd7565b9150600a85611800919061316d565b603061180c9190612ef6565b60f81b818381518110611848577f4e487b7100000000000000000000000000000000000000000000000000000000600052603260045260246000fd5b60200101907effffffffffffffffffffffffffffffffffffffffffffffffffffffffffffff1916908160001a905350600a856118849190612f4c565b94506117dc565b8093505050505b919050565b6000816040516020016118aa919061295e565b6040516020818303038152906040528051906020012060001c9050919050565b606060405180602001604052806000815250905090565b60606118ec8261117d565b61192b576040517f08c379a000000000000000000000000000000000000000000000000000000000815260040161192290612dad565b60405180910390fd5b60006119356118ca565b905060008151116119555760405180602001604052806000815250611980565b8061195f846116ea565b604051602001611970929190612975565b6040516020818303038152906040525b915050919050565b606060008251905060008114156119b15760405180602001604052806000815250915050611b41565b600060036002836119c29190612ef6565b6119cc9190612f4c565b60046119d89190612f7d565b905060006020826119e99190612ef6565b67ffffffffffffffff811115611a28577f4e487b7100000000000000000000000000000000000000000000000000000000600052604160045260246000fd5b6040519080825280601f01601f191660200182016040528015611a5a5781602001600182028036833780820191505090505b509050600060405180606001604052806040815260200161399a604091399050600181016020830160005b86811015611afe5760038101905062ffffff818a015116603f8160121c168401518060081b905060ff603f83600c1c1686015116810190508060081b905060ff603f8360061c1686015116810190508060081b905060ff603f831686015116810190508060e01b90508084526004840193505050611a85565b506003860660018114611b185760028114611b2857611b33565b613d3d60f01b6002830352611b33565b603d60f81b60018303525b508484525050819450505050505b919050565b611b60828260405180602001604052806000815250611e52565b5050565b611b6d8261117d565b611bac576040517f08c379a0000000000000000000000000000000000000000000000000000000008152600401611ba390612d0d565b60405180910390fd5b80600660008481526020019081526020016000209080519060200190611bd392919061208e565b505050565b6001816000016000828254019250508190555050565b611c88838383604051602401611c0693929190612bcf565b6040516020818303038152906040527fe3849f79000000000000000000000000000000000000000000000000000000007bffffffffffffffffffffffffffffffffffffffffffffffffffffffff19166020820180517bffffffffffffffffffffffffffffffffffffffffffffffffffffffff8381831617835250505050611c8d565b505050565b60008151905060006a636f6e736f6c652e6c6f679050602083016000808483855afa5050505050565b505050565b6000611cdc8473ffffffffffffffffffffffffffffffffffffffff16611ead565b15611e45578373ffffffffffffffffffffffffffffffffffffffff1663150b7a02611d056111e9565b8786866040518563ffffffff1660e01b8152600401611d279493929190612ac3565b602060405180830381600087803b158015611d4157600080fd5b505af1925050508015611d7257506040513d601f19601f82011682018060405250810190611d6f91906123d2565b60015b611df5573d8060008114611da2576040519150601f19603f3d011682016040523d82523d6000602084013e611da7565b606091505b50600081511415611ded576040517f08c379a0000000000000000000000000000000000000000000000000000000008152600401611de490612c0d565b60405180910390fd5b805181602001fd5b63150b7a0260e01b7bffffffffffffffffffffffffffffffffffffffffffffffffffffffff1916817bffffffffffffffffffffffffffffffffffffffffffffffffffffffff191614915050611e4a565b600190505b949350505050565b611e5c8383611ec0565b611e696000848484611cbb565b611ea8576040517f08c379a0000000000000000000000000000000000000000000000000000000008152600401611e9f90612c0d565b60405180910390fd5b505050565b600080823b905060008111915050919050565b600073ffffffffffffffffffffffffffffffffffffffff168273ffffffffffffffffffffffffffffffffffffffff161415611f30576040517f08c379a0000000000000000000000000000000000000000000000000000000008152600401611f2790612d2d565b60405180910390fd5b611f398161117d565b15611f79576040517f08c379a0000000000000000000000000000000000000000000000000000000008152600401611f7090612c2d565b60405180910390fd5b611f8560008383611cb6565b6001600360008473ffffffffffffffffffffffffffffffffffffffff1673ffffffffffffffffffffffffffffffffffffffff1681526020019081526020016000206000828254611fd59190612ef6565b92505081905550816002600083815260200190815260200160002060006101000a81548173ffffffffffffffffffffffffffffffffffffffff021916908373ffffffffffffffffffffffffffffffffffffffff160217905550808273ffffffffffffffffffffffffffffffffffffffff16600073ffffffffffffffffffffffffffffffffffffffff167fddf252ad1be2c89b69c2b068fc378daa952ba7f163c4a11628f55a4df523b3ef60405160405180910390a45050565b82805461209a906130c1565b90600052602060002090601f0160209004810192826120bc5760008555612103565b82601f106120d557805160ff1916838001178555612103565b82800160010185558215612103579182015b828111156121025782518255916020019190600101906120e7565b5b5090506121109190612114565b5090565b5b8082111561212d576000816000905550600101612115565b5090565b600061214461213f84612e6d565b612e48565b90508281526020810184848401111561215c57600080fd5b61216784828561307f565b509392505050565b60008135905061217e81613918565b92915050565b6000813590506121938161392f565b92915050565b6000813590506121a881613946565b92915050565b6000815190506121bd81613946565b92915050565b600082601f8301126121d457600080fd5b81356121e4848260208601612131565b91505092915050565b6000813590506121fc8161395d565b92915050565b60006020828403121561221457600080fd5b60006122228482850161216f565b91505092915050565b6000806040838503121561223e57600080fd5b600061224c8582860161216f565b925050602061225d8582860161216f565b9150509250929050565b60008060006060848603121561227c57600080fd5b600061228a8682870161216f565b935050602061229b8682870161216f565b92505060406122ac868287016121ed565b9150509250925092565b600080600080608085870312156122cc57600080fd5b60006122da8782880161216f565b94505060206122eb8782880161216f565b93505060406122fc878288016121ed565b925050606085013567ffffffffffffffff81111561231957600080fd5b612325878288016121c3565b91505092959194509250565b6000806040838503121561234457600080fd5b60006123528582860161216f565b925050602061236385828601612184565b9150509250929050565b6000806040838503121561238057600080fd5b600061238e8582860161216f565b925050602061239f858286016121ed565b9150509250929050565b6000602082840312156123bb57600080fd5b60006123c984828501612199565b91505092915050565b6000602082840312156123e457600080fd5b60006123f2848285016121ae565b91505092915050565b60006020828403121561240d57600080fd5b600061241b848285016121ed565b91505092915050565b61242d8161300b565b82525050565b61243c8161301d565b82525050565b600061244d82612eb3565b6124578185612ec9565b935061246781856020860161308e565b6124708161325a565b840191505092915050565b600061248682612ebe565b6124908185612eda565b93506124a081856020860161308e565b6124a98161325a565b840191505092915050565b60006124bf82612ebe565b6124c98185612eeb565b93506124d981856020860161308e565b80840191505092915050565b600081546124f2816130c1565b6124fc8186612eda565b9450600182166000811461251757600181146125295761255c565b60ff198316865260208601935061255c565b61253285612e9e565b60005b8381101561255457815481890152600182019150602081019050612535565b808801955050505b50505092915050565b60008154612572816130c1565b61257c8186612eeb565b9450600182166000811461259757600181146125a8576125db565b60ff198316865281860193506125db565b6125b185612e9e565b60005b838110156125d3578154818901526001820191506020810190506125b4565b838801955050505b50505092915050565b60006125f1603283612eda565b91506125fc8261326b565b604082019050919050565b6000612614601c83612eda565b915061261f826132ba565b602082019050919050565b6000612637600483612eeb565b9150612642826132e3565b600482019050919050565b600061265a602483612eda565b91506126658261330c565b604082019050919050565b600061267d601983612eda565b91506126888261335b565b602082019050919050565b60006126a0600283612eeb565b91506126ab82613384565b600282019050919050565b60006126c3602c83612eda565b91506126ce826133ad565b604082019050919050565b60006126e6600183612eeb565b91506126f1826133fc565b600182019050919050565b6000612709603883612eda565b915061271482613425565b604082019050919050565b600061272c602a83612eda565b915061273782613474565b604082019050919050565b600061274f602983612eda565b915061275a826134c3565b604082019050919050565b6000612772602e83612eda565b915061277d82613512565b604082019050919050565b6000612795600283612eeb565b91506127a082613561565b600282019050919050565b60006127b8602083612eda565b91506127c38261358a565b602082019050919050565b60006127db603183612eda565b91506127e6826135b3565b604082019050919050565b60006127fe602c83612eda565b915061280982613602565b604082019050919050565b6000612821607f83612eeb565b915061282c82613651565b607f82019050919050565b6000612844602983612eda565b915061284f826136ec565b604082019050919050565b6000612867602f83612eda565b91506128728261373b565b604082019050919050565b600061288a600a83612eeb565b91506128958261378a565b600a82019050919050565b60006128ad602183612eda565b91506128b8826137b3565b604082019050919050565b60006128d0601d83612eeb565b91506128db82613802565b601d82019050919050565b60006128f3603183612eda565b91506128fe8261382b565b604082019050919050565b6000612916600c83612eeb565b91506129218261387a565b600c82019050919050565b6000612939605283612eda565b9150612944826138a3565b606082019050919050565b61295881613075565b82525050565b600061296a82846124b4565b915081905092915050565b600061298182856124b4565b915061298d82846124b4565b91508190509392505050565b60006129a58288612565565b91506129b18287612565565b91506129bd8286612565565b91506129c98285612565565b91506129d58284612565565b91508190509695505050505050565b60006129ef8261287d565b91506129fa82612693565b9150612a0682876124b4565b9150612a118261262a565b9150612a1d8286612565565b9150612a28826126d9565b9150612a348285612565565b9150612a3f82612814565b9150612a4b82846124b4565b9150612a5682612788565b915081905095945050505050565b6000612a6f826128c3565b9150612a7b82846124b4565b915081905092915050565b6000612a9182612909565b9150612a9d82846124b4565b915081905092915050565b6000602082019050612abd6000830184612424565b92915050565b6000608082019050612ad86000830187612424565b612ae56020830186612424565b612af2604083018561294f565b8181036060830152612b048184612442565b905095945050505050565b6000608082019050612b246000830187612424565b612b31602083018661294f565b8181036040830152612b4381856124e5565b90508181036060830152612b5781846124e5565b905095945050505050565b6000602082019050612b776000830184612433565b92915050565b60006020820190508181036000830152612b97818461247b565b905092915050565b60006040820190508181036000830152612bb9818561247b565b9050612bc8602083018461294f565b9392505050565b60006060820190508181036000830152612be9818661247b565b9050612bf8602083018561294f565b612c056040830184612424565b949350505050565b60006020820190508181036000830152612c26816125e4565b9050919050565b60006020820190508181036000830152612c4681612607565b9050919050565b60006020820190508181036000830152612c668161264d565b9050919050565b60006020820190508181036000830152612c8681612670565b9050919050565b60006020820190508181036000830152612ca6816126b6565b9050919050565b60006020820190508181036000830152612cc6816126fc565b9050919050565b60006020820190508181036000830152612ce68161271f565b9050919050565b60006020820190508181036000830152612d0681612742565b9050919050565b60006020820190508181036000830152612d2681612765565b9050919050565b60006020820190508181036000830152612d46816127ab565b9050919050565b60006020820190508181036000830152612d66816127ce565b9050919050565b60006020820190508181036000830152612d86816127f1565b9050919050565b60006020820190508181036000830152612da681612837565b9050919050565b60006020820190508181036000830152612dc68161285a565b9050919050565b60006020820190508181036000830152612de6816128a0565b9050919050565b60006020820190508181036000830152612e06816128e6565b9050919050565b60006020820190508181036000830152612e268161292c565b9050919050565b6000602082019050612e42600083018461294f565b92915050565b6000612e52612e63565b9050612e5e82826130f3565b919050565b6000604051905090565b600067ffffffffffffffff821115612e8857612e8761322b565b5b612e918261325a565b9050602081019050919050565b60008190508160005260206000209050919050565b600081519050919050565b600081519050919050565b600082825260208201905092915050565b600082825260208201905092915050565b600081905092915050565b6000612f0182613075565b9150612f0c83613075565b9250827fffffffffffffffffffffffffffffffffffffffffffffffffffffffffffffffff03821115612f4157612f4061319e565b5b828201905092915050565b6000612f5782613075565b9150612f6283613075565b925082612f7257612f716131cd565b5b828204905092915050565b6000612f8882613075565b9150612f9383613075565b9250817fffffffffffffffffffffffffffffffffffffffffffffffffffffffffffffffff0483118215151615612fcc57612fcb61319e565b5b828202905092915050565b6000612fe282613075565b9150612fed83613075565b92508282101561300057612fff61319e565b5b828203905092915050565b600061301682613055565b9050919050565b60008115159050919050565b60007fffffffff0000000000000000000000000000000000000000000000000000000082169050919050565b600073ffffffffffffffffffffffffffffffffffffffff82169050919050565b6000819050919050565b82818337600083830152505050565b60005b838110156130ac578082015181840152602081019050613091565b838111156130bb576000848401525b50505050565b600060028204905060018216806130d957607f821691505b602082108114156130ed576130ec6131fc565b5b50919050565b6130fc8261325a565b810181811067ffffffffffffffff8211171561311b5761311a61322b565b5b80604052505050565b600061312f82613075565b91507fffffffffffffffffffffffffffffffffffffffffffffffffffffffffffffffff8214156131625761316161319e565b5b600182019050919050565b600061317882613075565b915061318383613075565b925082613193576131926131cd565b5b828206905092915050565b7f4e487b7100000000000000000000000000000000000000000000000000000000600052601160045260246000fd5b7f4e487b7100000000000000000000000000000000000000000000000000000000600052601260045260246000fd5b7f4e487b7100000000000000000000000000000000000000000000000000000000600052602260045260246000fd5b7f4e487b7100000000000000000000000000000000000000000000000000000000600052604160045260246000fd5b6000601f19601f8301169050919050565b7f4552433732313a207472616e7366657220746f206e6f6e20455243373231526560008201527f63656976657220696d706c656d656e7465720000000000000000000000000000602082015250565b7f4552433732313a20746f6b656e20616c7265616479206d696e74656400000000600082015250565b7f5d202d2000000000000000000000000000000000000000000000000000000000600082015250565b7f4552433732313a207472616e7366657220746f20746865207a65726f2061646460008201527f7265737300000000000000000000000000000000000000000000000000000000602082015250565b7f4552433732313a20617070726f766520746f2063616c6c657200000000000000600082015250565b7f5b23000000000000000000000000000000000000000000000000000000000000600082015250565b7f4552433732313a206f70657261746f7220717565727920666f72206e6f6e657860008201527f697374656e7420746f6b656e0000000000000000000000000000000000000000602082015250565b7f2000000000000000000000000000000000000000000000000000000000000000600082015250565b7f4552433732313a20617070726f76652063616c6c6572206973206e6f74206f7760008201527f6e6572206e6f7220617070726f76656420666f7220616c6c0000000000000000602082015250565b7f4552433732313a2062616c616e636520717565727920666f7220746865207a6560008201527f726f206164647265737300000000000000000000000000000000000000000000602082015250565b7f4552433732313a206f776e657220717565727920666f72206e6f6e657869737460008201527f656e7420746f6b656e0000000000000000000000000000000000000000000000602082015250565b7f45524337323155524953746f726167653a2055524920736574206f66206e6f6e60008201527f6578697374656e7420746f6b656e000000000000000000000000000000000000602082015250565b7f227d000000000000000000000000000000000000000000000000000000000000600082015250565b7f4552433732313a206d696e7420746f20746865207a65726f2061646472657373600082015250565b7f45524337323155524953746f726167653a2055524920717565727920666f722060008201527f6e6f6e6578697374656e7420746f6b656e000000000000000000000000000000602082015250565b7f4552433732313a20617070726f76656420717565727920666f72206e6f6e657860008201527f697374656e7420746f6b656e0000000000000000000000000000000000000000602082015250565b7f222c20226465736372697074696f6e223a2022416e204e46542066726f6d207460008201527f686520686967686c79206163636c61696d6564205265616c204d61647269642060208201527f52616e646f6d20506c6179657220636f6c6c656374696f6e222c2022696d616760408201527f65223a2022646174613a696d6167652f7376672b786d6c3b6261736536342c00606082015250565b7f4552433732313a207472616e73666572206f6620746f6b656e2074686174206960008201527f73206e6f74206f776e0000000000000000000000000000000000000000000000602082015250565b7f4552433732314d657461646174613a2055524920717565727920666f72206e6f60008201527f6e6578697374656e7420746f6b656e0000000000000000000000000000000000602082015250565b7f7b226e616d65223a202200000000000000000000000000000000000000000000600082015250565b7f4552433732313a20617070726f76616c20746f2063757272656e74206f776e6560008201527f7200000000000000000000000000000000000000000000000000000000000000602082015250565b7f646174613a6170706c69636174696f6e2f6a736f6e3b6261736536342c000000600082015250565b7f4552433732313a207472616e736665722063616c6c6572206973206e6f74206f60008201527f776e6572206e6f7220617070726f766564000000000000000000000000000000602082015250565b7f52616e646f6d5f494e4445580000000000000000000000000000000000000000600082015250565b7f416c6c20746865204e46542773206f66207468697320636f6c6c656374696f6e60008201527f20616c7265616479206d696e7465642e204e6f772c20796f752063616e20627560208201527f79207468656d206f6e204f70656e5365612e0000000000000000000000000000604082015250565b6139218161300b565b811461392c57600080fd5b50565b6139388161301d565b811461394357600080fd5b50565b61394f81613029565b811461395a57600080fd5b50565b61396681613075565b811461397157600080fd5b5056fe416e204e465420772f20494420257320686173206265656e206d696e74656420746f2025734142434445464748494a4b4c4d4e4f505152535455565758595a6162636465666768696a6b6c6d6e6f707172737475767778797a303132333435363738392b2fa2646970667358221220387cf56756ac7ccaecdc27d5c96a08771d11bb909dde2edb00e146857fdf385c64736f6c634300080400333c2f746578743e3c7465787420783d273530252720793d273730252720636c6173733d27626173652720646f6d696e616e742d626173656c696e653d276d6964646c652720746578742d616e63686f723d276d6964646c6527207374796c653d27666f6e742d73697a653a3132307078273e3c2f746578743e3c636972636c652063783d27353025272063793d2739252720723d273133272066696c6c3d2723303432424130272f3e3c636972636c652063783d27353025272063793d2739252720723d2731322e3435272066696c6c3d2723463339353238272f3e3c636972636c652063783d27353025272063793d2739252720723d2731312e3335272066696c6c3d2723303432424130272f3e3c636972636c652063783d27353025272063793d2739252720723d27382e36272066696c6c3d2723463339353238272f3e3c636972636c652063783d27353025272063793d2739252720723d27372e35272066696c6c3d2723303432424130272f3e3c636972636c652063783d27353025272063793d2739252720723d27362e34272066696c6c3d2723463339353238272f3e3c636972636c652063783d27353025272063793d2739252720723d27352e33272066696c6c3d2723303432424130272f3e3c2f7376673e49276d20736d61727420616e6420756e697175652e20416c6c206d79206f6727732070757420796f75722068616e6473207570213c73766720786d6c6e733d27687474703a2f2f7777772e77332e6f72672f323030302f73766727207072657365727665417370656374526174696f3d27784d696e594d696e206d656574272076696577426f783d273020302033353020333530273e3c646566733e3c7374796c653e40666f6e742d666163657b666f6e742d66616d696c793a50726573733b7372633a75726c28646174613a6170706c69636174696f6e2f666f6e742d776f6666323b636861727365743d7574662d383b6261736536342c643039474d6741424141414141412b5141424941414141414b38414141413871414145414141414141414141414141414141414141414141414141414141414150305a4756453063476834624d42794352675a6741494e534342494a6847555243417133634b35784334454741414532416951446767674549415749664165434e4178354733776c73784532624277415a4563424555573559427a4b2f6b384a6449694d646a6346334e575369714a6f52324c4254536f36485574747a565a32762f6165674355663876346f644b69684c64696355586e7133622b30644f7556314c68674f4c6f323530646f374a4e632f7a2b646676654e304546545550374a4f41706244714c7345436b7366554c776e6b32357745553548374261514b797049776741676d726f397635545a4f49696136506130687936366c694b526947785749524678557136634d782f756c514a4d577646444e6c6d614d512f2f3846682b372b776e7678796f596d494c41536c4e2f62726437354e2f5a72566b7842344663443844624674382b582b6568756f644c47726b425478675344665961436f4a6767725a72594e53754c37546b306553306c63793132544c392f3751536149464230674537413730343077545a644f366b77694e723963366550712f2f2f556b74346e5757764a57307031436d79483177364477774b5135326e304c66397664396b6557624d6254396e69645970334a7133596f323132576d645a414150496c6a697446554943554141726c515551454542416872454c774d5269626c57476d4a5152536c71794c4a4f7a742b6979584a35755957627676624251534346495476526648514142384d6e76774430412b48674d7677483435756c6a48514579414c6b416870414549674d59674142704c4458592b654434484c4c75316833636a58777941502f547a5146362f6b45376f7847564d4a463239625045484566597157327a2b55587141363433374e714c384e3265445474522b4c682f3432357741414541516f446e7051754b5541464d6b526139634e54326a5763396833647046684c327050494d58492f73782b517162496b55596f747a455372464a6e77514c6152435257374b496a424d46557662564757445057373477535457624a5672503859726c483673617150384475414a6c2b576a624d3550414943693438487342653076726539325a67445079787a2b6f774d416e545469774c4d41734c2f384165416b304370434e7744656269715545735350674571635441646b346d7130477a5270786f4a4e7474766a734f4f65363654785772366d374a2f2f416132766b7a42383148573232476d2f59314838615a504c7a566d6a7065434d456f78752b76373377356344494f4d3831614168575a524f6949473635614d744372582b4275686f385965596d3544622b6e554d674a5a5669396a2f67346f373052495470635079436c524f71324f417461797072515071647a452b46787039696f53524b5267472f645741674c564236454b4d4f3634595065774a6d456635516f3235336437704a33374b3478384c4374586b7877565a2f4575524559734c5a6f334e75414f6d4634304c796471577a345874754646686533456857376364496d70476a377666474f555a622b7275763862766b4e6a6c68584b3458417765396a344e7a3875504338584b584c6b384c6c547265676c6464567a4272363563615168345336465a313075506f33617262675544764c30576a2f6f73666972414b33375a4b49384c71577a453545497548785677626c4b62557575346e74786d524b4f656b5472515a2b78673654526951333744763037677358534c663567564e324e3444625643693631304f52387942396474357937667550353268736a4d71414d307a314e58534f584e314b444d554e4b3863304859764f415a4d7a6c79553250677663714b63736a75542f4d786176425055324d7a727235306841764d30314c52613461794c66504743627a4e354f375972446d49494d394e43626c38784879636b4f34496c2b754d33654c78674a582b49714367444477384255386f4b464e4c3136526461316c776f7836796543724b4b336e574f72725254476d434d372f4c6550373057635057546468684a354d3064732b5044525a385a5848653159655963633331584d41384e53696f376e46683777393141317a664f6e6d444f4d4772437235424647794b7850467a4c4848696d774c6c6c7834486f614942414a494134434a67414b5239514734444149414d7942364331564e466b307a69755a5643546a6e70374e53556a5a787343666455344a30656d385148755652376670373163696b385834733859712f472f47794e7a6378657a31703276512b324f48666a6d47736266314f784756652b324e62374b6463726a372b5a7a66354a737172444d636a4a693546526838476473686e69446376724f764a49676e6a6e53484230436e65393162676c614a4c67627336517a73324255323471743755543673506f71447361682f784e55545a34534539394e32656e4b55737a4a6932784d6a746c7075646b48394958725369426c61444a305532526c4f5642694570592f576f693475695855384a74636c72316477796f6470777146744e444843476464596a6867596646785937496b4145374b41724e4f594759564a775369565530514956592b66394a556972343947596e543970353065343146367773512f4d493765554e75514b4c346b69353348584770446e645a735859396b52334c6766662b4f314659524c6a5537736b387448736d496c56773571784f524d534675764f4a587a37614d4b6c74355a464457745766427461685041725952654b7063366a45792b35505067514b6c5847776c6d79784736664b586b344738346e545a37362b69645663707450626f7074497a314e6a6462724731494e6f2b6264745a4d636f786e47537a3567575669726b493268796d62436c6e754e6c4b536b3370693742696469454c42514a6d564862514a646579456c4f536c2b547043576454544b6a562b614a545062564c7a32564d744730485842322b73777477343136477174592f3241554335352f756c2b316666594f342f562f41394b744e585a797a704950634842627566672b5056336a37585852646445344744764e573537726533726d38494458705354564e694c63437448344d6e2b7769564b32506a773436413448785437376750744553743274493039345762666830434c6c63785a7564704a65773248567a31377a386932493449777176566d55724457476568395a61677a636c422f727a58747743346c6c5652555272574f3361336163566272774e70776531594f367435514b456c667a4556564d564a723538365234575236545876676e474e46512b5277647057336f52414950513478326e756f726b75374d5173547043672f4c4f506d755a41596469386c387a3157486e636c6d43515a565575705644462f42563233374479727a6c6662564e4a4a4c66427a69516357706d745769377651627166643858774256327276664b717970316f53425772667341312f772b6f2b4a777431346b68446a6261466666796e4f6b776b4e55462f7a666f3153694f3952666331617946317239663746765061542f584652354f55314439786e705a54646e59552b45357537486e64346f7536363866653775305267562b37743332303942525835707938794b6f6879336c4d656956362b5377333837703066437844477a4b6f4b443032457347596774495a67707445653658355459587176714b61372b7466506432543039624d616143696c4f304d6b4f674e44583062433969594469354d72313632505a3238494d546c655954454f32457a4e56376d34473456784d5548456a66326d5334454372317348306a5a47724d306a336657316f756475336533506d5656307232626565382b6f78454e6e35323837417a6869594746506746426575356f5054596d476b5666694a7063686f574b6b397644614d4135657871506e55624b4b654145444548716d4e67507070517877474a52637950636c37646642556b3665306977315a343930456d2f3249566f704c3136487443506472534b593178367732454f614c586c43744a7269786f5956424f6a3665583666367458526b66576339457178693161557752726f4a6830435a47515a2b2f53363478735931314857666f616931724530544b782f5a346c41764e546a365862582b6943487575676c47493636637a50764f6d2f3477583738446c325370363769666a326966675a322f4a426639616870646d48326f38762b57464d343753385438534337597a5850527036653044645343666a36444d767232715a416347616653795047477472727559355a7a4156733439356c445732794d78776b4b373649687530383879574b63346d6f7a6d39657579554a575572365a2b69506b4649616c68774739454d3869324f37644445476a6f7376705230357956573870614e516d6344553073486d6e786b5572445373324767525470306d4949793072513865783638526d6b5a305a68566974313972433330593141707676434b786331556570754a7251665142546f78734c734a475956385a774b79755a787143644f4734596f684e6a304f3275356153336a7233727162577a6448737a78794958714f5374776a54435964476938446f69414c3258477832715057346f4c49672b596f6a3864494f5733464d735744316878486d36496b6a44345a517a634c347052364a325a414234376a347a786a6b674f6f304f79527646384758685231702f4132366174396a4c4d32767a75727165424256437a5a686c674a504a564d4151485546497144306b6532307058553539703967556a704b2f746b655144434e784b2b747050687a377435743446766833712b79755a6f6a6f38324552456d68463642516a794a396d493634476f7a7a45514e646b4656644d35332b6b454b48706a656a73486839465645364d366179326b68642b5952443065424f6a6663385a5375526b6f673672457755546b52704a6a705058434f413754474e31695344516f774b4f764b5050596a694c4b6c6739587a6c6166416e6432484a2f695355434a4d2f5a56515957643565383041466951355767694c4850456153334872506c4f56686959696a4a32446a44474b576f45656143415230457275713258446c694865374c7157474c4a576a445a4179645044394957394a374b7171536a766234525969647a724536314346697137336d695a6a535a67585a3745775970707447784d4f2b2f5a45504d6f447342736455327356394535536636437870494e3279446d6b614a56593443517058746f52506f6763303373355932483844525865707868556574477972556851674e4c772b694f4472424e5756726436654d4d4861386a51752b754c4e6a447a71762b615561496e6a2b322b784e743272684f30645364414f39714d65644c575a364d6142493748574670424b474e316335416c69735a6d734c6b4b527a61794561306435306c49357378734632754e475a675a2f43674d51342f5965416d44574556597a3268514d456b61456c4c67463278356a6751706f47735278716e625147425557354a416d524c6d6a48732f4a544948645072554a6f2f6776333662674c46357372686c446959563730344e6874636e61694337496d5a3543766b335252774377696c424b4465736d3970317a36654831644375724164516b41307a4d3732494238436d58455172386b6449476b46384d5430493865594c436230746d6c4e557951433748526b4d39644678326b6e4675657164382f567364636142716775747a635a4f3179647755457338582f76744c66756c763274626b42782f413665705a4d6f624852374a6e564671364c575074453562636e4772356f3248566e4f7254696862776f62463677704336356f7a54516a787743475730667a4b456579656a50624344436756586d7337526e4f3271694177657368424c34475a422f594f622b69762b7865563656716458542b78416e747a396b434153546f50586a6b775a7273726c2f31746f3637756b424a513570354f6c59456263662f2b524a41705a31306a6f2b5554442f704e304f6e394134784174477042614937416a673530694775304a574f45354a4e396b3673544a6547344d3344507632505a4141564141496b63524941594169544377524c41414449693049514145304769563163417442695764487a7130677843565638414c3745643345692b79764f4150386456316f736b2b4f4b776d4278465974495842654d4976495a6466463056695170773967647a77784f4e3367696e7155705059692f766b6d2f784e2f3479484c387a5a79624e722f6c4d39376b4c314359682f2b66586868384230765a4866354473746f433663637a7673392f7272492f504539696d563241792b5a7767576d4759486a4338786c4d4c75526b4d384d5566372b43696a6e3830685531732f304a374d75596654583857587a74642b694a6d5a742b4634554f33495648414d5a78476e69366f53594864634f347a54375a30726e31557173704d66316e775277704b4f4876412b3945325a4e4235696d4f6d7a32796f784e79776e496b654f4e51594558396673736d68397650677247734478566e5a716e4a534b6d363877413671592b33455178335a7a4653563651344b7757434b6653386271734c426764594a32703331787636314a4c41345a6c543471457842524766334c41764e70786f4e356163496a4744306d6958324b4d776c5354426d6455312f334442796f7766624d7936737638764c594e364635356177497470326d5175796e596f4c73316350445263436243504879747752516f436270313358633653396b6e4a64585068317230766e3954784e42436e2f74676d623379682f316e366e2b5241456969525244496b415346684f584c6c795665676b434769564a6c794653705669624845316168567031367a6476304744426f79624e535963524f6d4f4b624e6d4c64676b63757a307170515343574e64504a5247715654426d5653466d57546e774955704a43365a6565787656767274554f3774395856316658765278714c69627156323043464e75714e4271505261444b616a52616a3157677a32694f4a475132446b65594565575639392b6a2f6f6f637874744564397a72526b6e643938414d444f77712f4e7962434d37682b316c736d647139717051735266454249735837422b4d414e306c6c736a36535a54434e35687152764a4b46416f62593867504c3850316d2f4c67306578714f65434d63414141414129666f726d61742827776f66663227297d2e626173657b66696c6c3a233038346239343b666f6e742d66616d696c793a50726573737d3c2f7374796c653e3c2f646566733e3c726563742077696474683d273130302527206865696768743d2731303025272066696c6c3d2723463339353238272f3e3c726563742077696474683d2739382527206865696768743d273938252720783d2731252720793d273125272066696c6c3d2723303432424130272f3e3c726563742077696474683d2739342527206865696768743d273934252720783d2733252720793d273325272066696c6c3d2723666666272f3e3c7465787420783d273530252720793d273333252720636c6173733d27626173652720646f6d696e616e742d626173656c696e653d276d6964646c652720746578742d616e63686f723d276d6964646c6527207374796c653d27666f6e742d73697a653a33307078273e",
  "linkReferences": {},
  "deployedLinkReferences": {}
}